:020000040800F2
:100000000080012005780008E5720008F3720008FE
:10001000F9720008FF720008057300080000000074
:100020000000000000000000000000000B7300084A
:1000300019730008000000002773000835730008DA
:10004000557800085578000855780008557800085C
:10005000557800085578000855780008557800084C
:100060005578000855780008417300085578000855
:10007000557800085578000855780008557800082C
:100080005578000855780008517300085578000825
:100090005578000855780008557800086D730008F9
:1000A00055780008557800085578000855780008FC
:1000B000897300089D73000855780008557800087A
:1000C00055780008557800085578000855780008DC
:1000D0005578000855780008B17300085578000875
:1000E000C573000855780008557800085578000851
:1000F00055780008557800085578000855780008AC
:10010000557800085578000855780008557800089B
:10011000557800085578000855780008557800088B
:10012000557800085578000855780008557800087B
:10013000557800085578000855780008557800086B
:10014000557800085578000855780008557800085B
:10015000557800085578000855780008557800084B
:10016000557800085578000855780008557800083B
:100170005578000855780008557800080000000000
:080180005578000855780008CD
:1001900010B5054C237833B9044B13B10448AFF3C1
:1001A00000800123237010BDFC010020000000002E
:1001B0008099000808B5034B1BB103490348AFF30E
:1001C000008008BD000000000002002080990008A7
:1001D000034613F8012B002AFBD1181A0138704787
:1001E00001F0FF01102A2BDB10F0070F08D010F8E8
:1001F000013B013A8B422DD010F0070F42B3F6D1EC
:10020000F0B441EA012141EA014122F007047FF004
:1002100000070023F0E80256083C85EA010586EA5B
:10022000010685FA47F5A3FA87F586FA47F6A5FA97
:1002300087F68EB9EED1F0BC01F0FF0102F00702A3
:1002400032B110F8013B013A83EA010313B1F8D14E
:100250000020704701387047002D06BF354603382F
:10026000073815F0010F07D1013015F4807F02BF68
:10027000013015F4C03F0130F0BC0138704700BFB9
:1002800081F0004102E000BF83F0004330B54FEA47
:1002900041044FEA430594EA050F08BF90EA020FB4
:1002A0001FBF54EA000C55EA020C7FEA645C7FEA47
:1002B000655C00F0E2804FEA5454D4EB5555B8BF6A
:1002C0006D420CDD2C4480EA020281EA030382EADB
:1002D000000083EA010180EA020281EA0303362D6D
:1002E00088BF30BD11F0004F4FEA01314FF4801C40
:1002F0004CEA113102D0404261EB410113F0004F52
:100300004FEA03334CEA133302D0524263EB430308
:1003100094EA050F00F0A780A4F10104D5F1200EA6
:100320000DDB02FA0EFC22FA05F2801841F1000101
:1003300003FA0EF2801843FA05F359410EE0A5F1D5
:1003400020050EF1200E012A03FA0EFC28BF4CF006
:10035000020C43FA05F3C01851EBE37101F00045BC
:1003600007D54FF0000EDCF1000C7EEB00006EEBC9
:100370000101B1F5801F1BD3B1F5001F0CD3490853
:100380005FEA30004FEA3C0C04F101044FEA4452AA
:1003900012F5800F80F09A80BCF1004F08BF5FEA31
:1003A000500C50F1000041EB045141EA050130BD11
:1003B0005FEA4C0C404141EB010111F4801FA4F1B4
:1003C0000104E9D191F0000F04BF01460020B1FA09
:1003D00081F308BF2033A3F10B03B3F120020CDA41
:1003E0000C3208DD02F1140CC2F10C0201FA0CF01F
:1003F00021FA02F10CE002F11402D8BFC2F1200C84
:1004000001FA02F120FA0CFCDCBF41EA0C01904039
:10041000E41AA2BF01EB0451294330BD6FEA040482
:100420001F3C1CDA0C340EDC04F11404C4F120026D
:1004300020FA04F001FA02F340EA030021FA04F37F
:1004400045EA030130BDC4F10C04C4F1200220FAD6
:1004500002F001FA04F340EA0300294630BD21FA14
:1004600004F0294630BD94F0000F83F4801306BFDA
:1004700081F480110134013D4EE77FEA645C18BFCE
:100480007FEA655C29D094EA050F08BF90EA020F65
:1004900005D054EA000C04BF1946104630BD91EA5D
:1004A000030F1EBF0021002030BD5FEA545C05D160
:1004B0004000494128BF41F0004130BD14F580049F
:1004C0003CBF01F5801130BD01F0004545F0FE4113
:1004D00041F470014FF0000030BD7FEA645C1ABF48
:1004E000194610467FEA655C1CBF0B46024650EA7F
:1004F000013406BF52EA033591EA030F41F40021AB
:1005000030BD00BF90F0000F04BF0021704730B530
:100510004FF4806404F132044FF000054FF0000105
:1005200050E700BF90F0000F04BF0021704730B5C6
:100530004FF4806404F1320410F0004548BF40429B
:100540004FF000013EE700BF42004FEAE2014FEAF0
:1005500031014FEA02701FBF12F07F4393F07F4FCB
:1005600081F06051704792F0000F14BF93F07F4FFD
:10057000704730B54FF4607401F0004521F0004140
:1005800020E700BF50EA010208BF704730B54FF0C6
:1005900000050AE050EA010208BF704730B511F0CB
:1005A000004502D5404261EB41014FF4806404F103
:1005B00032045FEA915C3FF4DCAE4FF003025FEA85
:1005C000DC0C18BF03325FEADC0C18BF033202EB0D
:1005D000DC02C2F1200300FA03FC20FA02F001FA67
:1005E00003FE40EA0E0021FA02F11444C1E600BF06
:1005F00070B54FF0FF0C4CF4E06C1CEA11541DBFB9
:100600001CEA135594EA0C0F95EA0C0F00F0DEF883
:100610002C4481EA030621EA4C5123EA4C5350EA68
:10062000013518BF52EA033541F4801143F48013B9
:1006300038D0A0FB02CE4FF00005E1FB02E506F04A
:100640000042E0FB03E54FF00006E1FB03569CF09F
:10065000000F18BF4EF0010EA4F1FF04B6F5007FA5
:1006600064F5407404D25FEA4E0E6D4146EB060617
:1006700042EAC62141EA55514FEAC52040EA5E50A0
:100680004FEACE2EB4F1FD0C88BFBCF5E06F1ED84A
:10069000BEF1004F08BF5FEA500E50F1000041EB81
:1006A000045170BD06F0004646EA010140EA02002E
:1006B00081EA0301B4EB5C04C2BFD4EB0C0541EA50
:1006C000045170BD41F480114FF0000E013C00F365
:1006D000AB8014F1360FDEBF002001F0004170BD89
:1006E000C4F10004203C35DA0C341BDC04F11404A2
:1006F000C4F1200500FA05F320FA04F001FA05F22E
:1007000040EA020001F0004221F0004110EBD370FA
:1007100021FA04F642EB06015EEA430E08BF20EA26
:10072000D37070BDC4F10C04C4F1200500FA04F3C9
:1007300020FA05F001FA04F240EA020001F000415B
:1007400010EBD37041F100015EEA430E08BF20EACE
:10075000D37070BDC4F1200500FA05F24EEA020E16
:1007600020FA04F301FA05F243EA020321FA04F045
:1007700001F0004121FA04F220EA020000EBD370FC
:100780005EEA430E08BF20EAD37070BD94F0000FFC
:100790000FD101F00046400041EB010111F4801F30
:1007A00008BF013CF7D041EA060195F0000F18BFE1
:1007B000704703F00046520043EB030313F4801F1D
:1007C00008BF013DF7D043EA0603704794EA0C0FD7
:1007D0000CEA135518BF95EA0C0F0CD050EA4106ED
:1007E00018BF52EA4306D1D181EA030101F000416A
:1007F0004FF0000070BD50EA410606BF1046194692
:1008000052EA430619D094EA0C0F02D150EA01369D
:1008100013D195EA0C0F05D152EA03361CBF1046DE
:1008200019460AD181EA030101F0004141F0FE417D
:1008300041F470014FF0000070BD41F0FE4141F401
:10084000780170BD70B54FF0FF0C4CF4E06C1CEA01
:1008500011541DBF1CEA135594EA0C0F95EA0C0FB6
:1008600000F0A7F8A4EB050481EA030E52EA033571
:100870004FEA013100F088804FEA03334FF0805592
:1008800045EA131343EA12634FEA022245EA1115BF
:1008900045EA10654FEA00260EF000419D4208BF70
:1008A000964244F1FD0404F5407402D25B084FEA1D
:1008B0003202B61A65EB03055B084FEA32024FF4C9
:1008C00080104FF4002CB6EB020E75EB030E22BF26
:1008D000B61A754640EA0C005B084FEA3202B6EBE6
:1008E000020E75EB030E22BFB61A754640EA5C0095
:1008F0005B084FEA3202B6EB020E75EB030E22BF25
:10090000B61A754640EA9C005B084FEA3202B6EB25
:10091000020E75EB030E22BFB61A754640EADC00E4
:1009200055EA060E18D04FEA051545EA16754FEA46
:1009300006164FEAC30343EA52734FEAC2025FEA64
:100940001C1CC0D111F4801F0BD141EA00014FF0F3
:1009500000004FF0004CB6E711F4801F04BF0143C4
:100960000020B4F1FD0C88BFBCF5E06F3FF6AFAEE0
:10097000B5EB030C04BFB6EB020C5FEA500C50F170
:10098000000041EB045170BD0EF0004E4EEA1131F3
:1009900014EB5C04C2BFD4EB0C0541EA045170BDFA
:1009A00041F480114FF0000E013C90E645EA060E3E
:1009B0008DE60CEA135594EA0C0F08BF95EA0C0F6C
:1009C0003FF43BAF94EA0C0F0AD150EA01347FF4B4
:1009D00034AF95EA0C0F7FF425AF104619462CE78B
:1009E00095EA0C0F06D152EA03353FF4FDAE1046EE
:1009F000194622E750EA410618BF52EA43067FF43F
:100A0000C5AE50EA41047FF40DAF52EA43057FF4CE
:100A1000EBAE12E74FF0FF3C06E000BF4FF0010CD9
:100A200002E000BF4FF0010C4DF804CD4FEA410C3D
:100A30007FEA6C5C4FEA430C18BF7FEA6C5C1BD00A
:100A400001B050EA410C0CBF52EA430C91EA030F8B
:100A500002BF90EA020F0020704710F1000F91EAE8
:100A6000030F58BF994208BF90422CBFD8176FEAB6
:100A7000E37040F0010070474FEA410C7FEA6C5C84
:100A800002D150EA013C07D14FEA430C7FEA6C5C8B
:100A9000D6D152EA033CD3D05DF8040B704700BFB7
:100AA0008446104662468C461946634600E000BF05
:100AB00001B5FFF7B7FF002848BF10F1000F01BDD7
:100AC0004DF808EDFFF7F4FF0CBF012000205DF8A2
:100AD00008FB00BF4DF808EDFFF7EAFF34BF012027
:100AE00000205DF808FB00BF4DF808EDFFF7E0FFC0
:100AF00094BF012000205DF808FB00BF4DF808ED11
:100B0000FFF7CEFF94BF012000205DF808FB00BF77
:100B10004DF808EDFFF7C4FF34BF012000205DF859
:100B200008FB00BF4FEA410C7FEA6C5C02D150EA3F
:100B3000013C0AD14FEA430C7FEA6C5C02D152EAD5
:100B4000033C02D14FF0000070474FF001007047A6
:100B50004FEA410212F5001215D211D56FF47873E5
:100B6000B3EB625212D94FEAC12343F0004343EA88
:100B7000505311F0004F23FA02F018BF4042704763
:100B80004FF00000704750EA013005D111F00040ED
:100B900008BF6FF0004070474FF00000704700BF83
:100BA0004FEA4102B2F1E04324BFB3F5001CDCF18F
:100BB000FE5C0DD901F0004C4FEAC0024CEA5070C7
:100BC000B2F1004F40EB830008BF20F001007047F6
:100BD00011F0804F21D113F13872BCBF01F00040F9
:100BE000704741F480114FEA5252C2F11802C2F12B
:100BF000200C10FA0CF320FA02F018BF40F00100AC
:100C00004FEAC1234FEAD32303FA0CFC40EA0C005D
:100C100023FA02F34FEA4303CCE77FEA625307D19A
:100C200050EA01331EBF4FF0FE4040F440007047D1
:100C300001F0004040F0FE4040F40000704700BF6B
:100C400053B94AB9002908BF00281CBF4FF0FF3133
:100C50004FF0FF3000F07AB9ADF1080C6DE904CE29
:100C600000F006F8DDF804E0DDE9022304B0704787
:100C70002DE9F0478C460D460446089E002B51D1C5
:100C80008A4217466DD9B2FA82FEBEF1000F0BD030
:100C9000CEF1200C01FA0EF520FA0CFC02FA0EF748
:100CA0004CEA050C00FA0EF44FEA174A250CBCFB7F
:100CB000FAF81FFA87F90AFB18CC45EA0C4508FB3D
:100CC00009F3AB420AD9ED1908F1FF3280F0238114
:100CD000AB4240F22081A8F102083D44ED1AA4B2D3
:100CE000B5FBFAF00AFB105544EA054400FB09F98C
:100CF000A14509D9E41900F1FF3380F00A81A1452B
:100D000040F2078102383C44A4EB090440EA084061
:100D10000021002E61D024FA0EF4002334607360A9
:100D2000BDE8F0878B4207D9002E54D0002186E819
:100D300021000846BDE8F087B3FA83F1002940F0AE
:100D40008E80AB4202D3824200F2FA80841A65EBB5
:100D500003050120AC46002E3FD086E81010BDE808
:100D6000F08712B90127B7FBF2F7B7FA87FEBEF199
:100D7000000F34D1EB1B3A0C1FFA87FC0121B3FBA7
:100D8000F2F8250C02FB183345EA03450CFB08F387
:100D9000AB4207D9ED1908F1FF3002D2AB4200F2A5
:100DA000D1808046ED1AA3B2B5FBF2F002FB1055DC
:100DB00043EA05440CFB00FCA44507D9E41900F103
:100DC000FF3302D2A44500F2B8801846A4EB0C040D
:100DD00040EA08409DE731463046BDE8F087CEF155
:100DE000200405FA0EF307FA0EF720FA04F83A0C7D
:100DF00025FA04F448EA0308B4FBF2F14FEA184577
:100E000002FB11441FFA87FC45EA044501FB0CF381
:100E1000AB4200FA0EF409D9ED1901F1FF3080F070
:100E20008A80AB4240F2878002393D44EB1A1FFAB8
:100E300088F5B3FBF2F002FB103345EA034500FBF3
:100E40000CF3AB4207D9ED1900F1FF386FD2AB427A
:100E50006DD902383D44EB1A40EA01418FE7C1F1F8
:100E6000200722FA07F88B4005FA01F448EA030349
:100E700020FA07FE4FEA134CFD404EEA040EB5FB84
:100E8000FCF94FEA1E440CFB19551FFA83F844EA9B
:100E9000054509FB08F4AC4202FA01F200FA01FA36
:100EA00008D9ED1809F1FF3043D2AC4241D9A9F17C
:100EB00002091D442D1B1FFA8EFEB5FBFCF00CFB36
:100EC00010554EEA054400FB08F8A04507D9E41880
:100ED00000F1FF3529D2A04527D902381C4440EA49
:100EE0000940A4EB0804A0FB02894C45C6464D46C8
:100EF00015D312D056B1BAEB0E0364EB050404FA15
:100F000007F7CB401F43CC40376074600021BDE839
:100F1000F0871846F8E69046E0E6C245EAD2B8EB1C
:100F2000020E69EB03050138E4E72846D7E740469F
:100F300091E78146BEE7014678E702383C4445E741
:100F4000084608E7A8F102083D442BE7704700BFB8
:100F500080B582B000AF0023FB710C4A0B4B1B68BD
:100F600043F480731360032001F02EFE002000F094
:100F70000FF80346002B02D00123FB7101E006F0BD
:100F80008DF9FB7918460837BD4680BD0020024028
:100F900080B584B000AF78600023FB73164B1B68EC
:100FA000002B22D0154B1A68134B1B684FF47A7133
:100FB000B1FBF3F3B2FBF3F3184601F03AFE03463C
:100FC000002B0FD17B680F2B09D8002279684FF0D6
:100FD000FF3001F004FE0A4A7B68136007E001233A
:100FE000FB7304E00123FB7301E00123FB73FB7B34
:100FF00018461037BD4680BD0400002028000020A0
:101000000000002080B400AF054B1A68054B1B6838
:101010001344034A136000BFBD465DF8047B70476C
:10102000600200200400002080B400AF034B1B6866
:101030001846BD465DF8047B704700BF6002002083
:1010400080B483B000AF786039607B689B6823F41C
:101050007C123B681A437B689A6000BF0C37BD4620
:101060005DF8047B704780B483B000AF786039606E
:101070007B689B6823F0E0723B681A437B689A6048
:1010800000BF0C37BD465DF8047B704780B483B069
:1010900000AF78607B689B6803F0E07318460C37FC
:1010A000BD465DF8047B704790B484B000AFF86033
:1010B000B9607A603B60FB6860331A46BB689B008E
:1010C00013441C462268084B13407A6802F0F8412A
:1010D0003A680A43134343F00043236000BF1037CC
:1010E000BD4690BC704700BF00F0FF0390B482B0D3
:1010F00000AF786039607B6860331A463B689B00BC
:1011000013441C46236803F0F84318460837BD46CD
:1011100090BC704790B484B000AFF860B9607A605A
:10112000FB6860331A46BB689B0013441C46236867
:1011300023F000427B681343236000BF1037BD4695
:1011400090BC704780B483B000AF78607B68DB6888
:1011500003F44063002B01D1012300E00023184673
:101160000C37BD465DF8047B704790B484B000AF87
:10117000F860B9607A60FB6830331A46BB681B0AB6
:101180009B0003F00C0313441C462268BB6803F069
:101190001F031F2101FA03F3DB431A407B689B0EF8
:1011A00003F01F01BB6803F01F0301FA03F31343AD
:1011B000236000BF1037BD4690BC704780B483B039
:1011C00000AF78607B68DB6C03F0C003002B01D1BB
:1011D000012300E0002318460C37BD465DF8047B70
:1011E000704790B484B000AFF860B9607A60FB6873
:1011F00014331A46BB685B0E9B0003F004031344D0
:101200001C462268BB681B0D03F01F03072101FA6F
:1012100003F3DB431A40BB681B0D03F01F0379681F
:1012200001FA03F31343236000BF1037BD4690BC9F
:101230007047000080B485B000AFF860B9607A6094
:10124000FB68D3F8B020BB68C3F31203DB431A403A
:101250007B6803F018030849D940BB680B40C3F30F
:1012600012031A43FB68C3F8B02000BF1437BD4611
:101270005DF8047B704700BFFFFF070080B483B0B8
:1012800000AF78607B689B6803F01F0318460C373B
:10129000BD465DF8047B704780B483B000AF7860D2
:1012A0007B689B6803F4604318460C37BD465DF8C5
:1012B000047B704780B483B000AF78607B689B6824
:1012C00023F0204323F03F037A68936000BF0C377C
:1012D000BD465DF8047B704780B483B000AF786092
:1012E0007B689B6803F00053B3F1005F01D10123D9
:1012F00000E0002318460C37BD465DF8047B7047BC
:1013000080B483B000AF78607B689B6823F01043A3
:1013100023F03F0343F080527B689A6000BF0C3794
:10132000BD465DF8047B704780B483B000AF786041
:101330007B689B6803F08053B3F1805F01D1012388
:1013400000E0002318460C37BD465DF8047B70476B
:1013500080B483B000AF78607B689B6823F0004363
:1013600023F03F0343F001027B689A6000BF0C3713
:10137000BD465DF8047B704780B483B000AF7860F1
:101380007B689B6803F00103012B01D1012300E07E
:10139000002318460C37BD465DF8047B704780B4C7
:1013A00083B000AF78607B689B6823F0004323F034
:1013B0003F0343F004027B689A6000BF0C37BD46D0
:1013C0005DF8047B704780B483B000AF78607B68C1
:1013D0009B6803F00403042B01D1012300E00023E8
:1013E00018460C37BD465DF8047B704780B483B067
:1013F00000AF78607B689B6803F00803082B01D17D
:10140000012300E0002318460C37BD465DF8047B3D
:101410007047000090B589B000AF78600023FB777B
:101420000023BB607B68002B01D1012334E17B6882
:101430001B69002B7B685B6D002B09D1786805F078
:10144000B3FA7B6800229A657B68002283F85020FB
:101450007B681B681846FFF73FFF0346002B04D04C
:101460007B681B681846FFF725FF7B681B681846DA
:10147000FFF75AFF0346002B13D17B681B68184601
:10148000FFF73EFF864B1B689B09864AA2FB03239E
:101490009B09BB6002E0BB68013BBB60BB68002BE3
:1014A000F9D17B681B681846FFF73EFF0346002B07
:1014B0000DD17B685B6D43F010027B685A657B68D9
:1014C0009B6D43F001027B689A650123FB777B6883
:1014D0001B681846FFF777FF78617B685B6D03F048
:1014E0001003002B40F0CF807B69002B40F0CB80B5
:1014F0007B685B6D23F4817343F002027B685A655D
:101500007B681B681846FFF737FF0346002B15D191
:101510006548FFF731FF04466448FFF72DFF034697
:101520001C436348FFF728FF03462343002B05D1E4
:101530007B685B6819465F48FFF782FD7B685B7ECE
:101540005A037B685B6B1A437B68DB681A437B68D2
:101550009B681A437B6893F820301B041343BB61DC
:101560007B6893F82030012B06D17B685B6A013BD6
:101570005B04BA691343BB617B689B6A002B09D08B
:101580007B689B6A03F470727B68DB6A1343BA69F9
:101590001343BB617B681A687B681B68D968464B3C
:1015A0000B40B9690B43D3607B681B681846FFF793
:1015B0000AFF38617B681B681846FFF717FFF86061
:1015C0003B69002B3DD1FB68002B3AD17B681B7E29
:1015D0009A037B6893F830305B001343BB617B68F0
:1015E0001A687B681B68DB6823F4804323F00203DE
:1015F000B9690B43D3607B6893F83830012B18D15D
:101600007B681A687B681B681B6923F4FF6323F0FF
:1016100004037968C86B7968096C08437968496C78
:1016200008437968896C01430B4343F0010313615C
:1016300007E07B681B687A681268126922F0010271
:101640001A617B681B69012B0CD17B681B687A6867
:101650001268126B22F00F017A68D269013A0A43CC
:101660001A6307E07B681B687A681268126B22F0C5
:101670000F021A637B685B6D23F0030343F00102E2
:101680007B685A6507E07B685B6D43F010027B68FE
:101690005A650123FB77FB7F18462437BD4690BD72
:1016A00028000020632D3E05000004500001045076
:1016B000000204500003045007C0F0FF80B586B05C
:1016C00000AF78605748FFF7D9FD38617B681B6829
:1016D0001846FFF778FE0346002B40F09C807B689D
:1016E00093F85030012B01D1022397E07B6801224F
:1016F00083F85020786801F03BF80346FB75FB7DCA
:10170000002B40F083807B685B6D23F4706323F0D3
:10171000010343F480727B685A657B681B68424A08
:10172000934202D07B681B6800E0404B7A681268E5
:10173000934202D03B69002B05D17B685B6D23F49B
:1017400080127B685A657B685B6D03F48053B3F548
:10175000805F06D17B689B6D23F006027B689A65EB
:1017600002E07B6800229A657B681B681C221A6075
:101770007B68002283F850207B681B682A4A9342CA
:1017800002D07B681B6800E0284B7A68126893429D
:1017900008D03B69002B05D03B69052B02D03B6983
:1017A000092B14D17B681B68DB6803F00073002BE6
:1017B00007D07B685B6D23F4405343F480527B6811
:1017C0005A657B681B681846FFF7E9FD25E07B68D2
:1017D0005B6D43F480127B685A657B681B68124A14
:1017E000934202D07B681B6800E0104BFB60FB68F3
:1017F000DB6803F00073002B0FD07B685B6D23F474
:10180000405343F480527B685A6506E07B680022AF
:1018100083F8502001E00223FB75FB7D1846183742
:10182000BD4680BD00030450000104500000045078
:1018300080B588B000AF786039606248FFF71EFD60
:1018400078617B685B69082B02D10823FB612AE081
:101850007B69002B05D07B69052B02D07B69092BA6
:1018600011D17B681B68DB6803F00103002B07D0F4
:101870007B685B6D43F020027B685A6501239DE025
:101880000423FB610FE04F48FFF706FD0346002BE2
:1018900007D07B685B6D43F020027B685A650123AB
:1018A0008CE00423FB61FFF7BFFB38611AE03B6863
:1018B000B3F1FF3F16D0FFF7B7FB02463B69D21AE0
:1018C0003B689A4202D83B68002B0BD17B685B6D6A
:1018D00043F004027B685A657B68002283F850203D
:1018E00003236BE07B681B681A68FB691340002BBD
:1018F000DDD07B685B6D43F400727B685A657B6862
:101900001B681846FFF71EFC0346002B1CD07B68A3
:101910005B7E002B18D17B681B681B6803F00803F3
:10192000082B11D17B685B6D23F480727B685A654C
:101930007B685B6D03F48053002B05D17B685B6D86
:1019400043F001027B685A657B681B681E4A93421C
:1019500002D07B681B6800E01C4B7A6812689342D7
:1019600008D07B69002B05D07B69052B02D07B69F1
:10197000092B04D17B681B68DB68BB610CE07B68CA
:101980001B68114A934202D07B681B6800E00F4B32
:10199000FB60FB68DB68BB61FB69082B04D17B68DB
:1019A0001B6808221A6008E0BB6903F48043002B1F
:1019B00003D17B681B680C221A600023184620376D
:1019C000BD4680BD000304500001045000000450D7
:1019D00080B586B000AF78609248FFF74FFC386161
:1019E0007B681B681846FFF7EEFC0346002B40F0AF
:1019F00011817B6893F85030012B01D102230CE157
:101A00007B68012283F85020786800F0B1FE03461D
:101A1000FB75FB7D002B40F0F8807B685B6D23F449
:101A2000706323F0010343F480727B685A657B681E
:101A30001B687D4A934202D07B681B6800E07B4BA9
:101A40007A681268934202D03B69002B05D17B680B
:101A50005B6D23F480127B685A657B685B6D03F4D1
:101A60008053002B06D07B689B6D23F006027B68B9
:101A70009A6502E07B6800229A657B681B681C22DD
:101A80001A607B68002283F850207B681B687A68A4
:101A90001268526822F01C025A607B685B69082B4E
:101AA00008D17B681B687A681268526842F00802A5
:101AB0005A6008E07B681B687A681268526842F0D6
:101AC00004025A6000BF7B685B6B002B07D17B6808
:101AD0001B687A681268526842F010025A607B688C
:101AE0001B68514A934202D07B681B6800E04F4B51
:101AF0007A681268934208D03B69002B05D03B6995
:101B0000052B02D03B69092B3AD17B681B68DB6847
:101B100003F00073002B2DD07B685B6D23F44053E2
:101B200043F480527B685A657B685B69082B10D14F
:101B30007B681B687A681268526822F020025A603B
:101B40007B681B687A681268526842F040025A60EB
:101B500010E07B681B687A681268526822F04002C5
:101B60005A607B681B687A681268526842F02002EB
:101B70005A6000BF7B681B681846FFF710FC4BE0FB
:101B80007B685B6D43F480127B685A657B681B68D9
:101B9000254A934202D07B681B6800E0234BFB6020
:101BA000FB68DB6803F00073002B35D07B685B6D4E
:101BB00023F4405343F480527B685A657B685B6929
:101BC000082B10D17B681B687A681268526822F073
:101BD00020025A607B681B687A681268526842F07B
:101BE00040025A6018E07B681B687A681268526885
:101BF00022F040025A607B681B687A68126852685B
:101C000042F020025A6000BF06E07B68002283F8A1
:101C1000502001E00223FB75FB7D18461837BD46B6
:101C200080BD00BF000304500001045000000450B8
:101C300080B483B000AF78607B681B681B6C18466B
:101C40000C37BD465DF8047B7047000080B58AB054
:101C500000AF786000237B627B681B681B68FB61B8
:101C60007B681B685B68BB618248FFF707FB786194
:101C7000FB6903F00203002B17D0BB6903F00203DA
:101C8000002B12D07B685B6D03F01003002B05D195
:101C90007B685B6D43F400627B685A65786800F08E
:101CA0000FFE7B681B6802221A60FB6903F00403C5
:101CB000002B04D0BB6903F00403002B0AD1FB699D
:101CC00003F00803002B00F08380BB6903F00803D6
:101CD000002B7DD07B685B6D03F01003002B05D1DA
:101CE0007B685B6D43F400727B685A657B681B6898
:101CF0001846FFF727FA0346002B62D07B681B6863
:101D00005D4A934202D07B681B6800E05B4B7A68B7
:101D10001268934208D07B69002B05D07B69052BA4
:101D200002D07B69092B04D17B681B68DB683B62AE
:101D30000CE07B681B68504A934202D07B681B68AA
:101D400000E04E4B3B613B69DB683B623B6A03F45E
:101D50000053002B35D17B681B681B6803F0080318
:101D6000082B2ED17B681B681846FFF72CFB034617
:101D7000002B1AD17B681B687A681268526822F0BF
:101D80000C025A607B685B6D23F480727B685A6535
:101D90007B685B6D03F48053002B12D17B685B6D15
:101DA00043F001027B685A650BE07B685B6D43F092
:101DB00010027B685A657B689B6D43F001027B686B
:101DC0009A65786805F0C0F97B681B680C221A6078
:101DD000FB6903F02003002B04D0BB6903F0200350
:101DE000002B0BD1FB6903F04003002B00F09F8018
:101DF000BB6903F04003002B00F099807B685B6DAA
:101E000003F01003002B05D17B685B6D43F4005297
:101E10007B685A657B681B681846FFF7CFF9F86046
:101E20007B681B681846FFF78DF9B8607B681B68F4
:101E3000114A934202D07B681B6800E00F4B7A681E
:101E40001268934208D07B69002B05D07B69062B72
:101E500002D07B69072B04D17B681B68DB683B627F
:101E600013E07B681B68044A934209D07B681B68B7
:101E700007E000BF000304500001045000000450BC
:101E80007D4B3B613B69DB683B62FB68002B0CD1FF
:101E90003B6A03F00073002B42D1BB68002B3FD09C
:101EA0003B6A03F40053002B3AD17B681B681B6824
:101EB00003F04003402B33D13B6A03F40013002BA3
:101EC0002ED17B681B681846FFF790FA0346002B5B
:101ED0001AD17B681B687A681268526822F0600227
:101EE0005A607B685B6D23F480527B685A657B681F
:101EF0005B6D03F48073002B12D17B685B6D43F044
:101F000001027B685A650BE07B685B6D43F0100251
:101F10007B685A657B689B6D43F001027B689A651C
:101F2000786800F0A5FC7B681B6860221A60FB697A
:101F300003F08003002B11D0BB6903F08003002B5A
:101F40000CD07B685B6D43F480327B685A6578689F
:101F500000F096F87B681B6880221A60FB6903F426
:101F60008073002B12D0BB6903F48073002B0DD05B
:101F70007B685B6D43F400327B685A65786800F0DB
:101F80008BFC7B681B684FF480721A60FB6903F45A
:101F90000073002B12D0BB6903F40073002B0DD02B
:101FA0007B685B6D43F480227B685A65786800F03B
:101FB0007DFC7B681B684FF400721A60FB6903F0BC
:101FC0001003002B36D0BB6903F01003002B31D077
:101FD0007B685B6B002B02D101237B6214E07B6981
:101FE000002B08D02548FFF757F90346002B0BD0EC
:101FF00001237B6208E07B681B68DB6803F0010358
:10200000002B01D001237B627B6A012B0ED17B6800
:102010005B6D43F480627B685A657B689B6D43F01F
:1020200002027B689A65786800F034F87B681B6868
:1020300010221A60FB6903F48063002B18D0BB697F
:1020400003F48063002B13D07B685B6D43F4804204
:102050007B685A657B689B6D43F008027B689A65D4
:102060007B681B684FF480621A60786800F00AFC95
:1020700000BF2837BD4680BD000004500003045057
:1020800080B483B000AF786000BF0C37BD465DF808
:10209000047B704780B483B000AF786000BF0C371A
:1020A000BD465DF8047B704780B5A6B000AF786090
:1020B0003960002387F897300023BB607B6893F872
:1020C0005030012B01D1022348E37B68012283F8C1
:1020D00050207B681B681846FFF775F90346002BF4
:1020E00040F029833B685B68052B24D83B685B681C
:1020F000023B032B1BD801A252F823F00D2100084C
:10210000152100081D210008252100083B680C222C
:102110005A6010E03B6812225A600CE03B681822BB
:102120005A6008E03B684FF480725A6003E03B68F5
:1021300006225A6000BF7B6818683B6859683B6894
:102140001B681A46FFF711F87B681B681846FFF7F3
:102150003AF9C7F890007B681B681846FFF746F904
:10216000C7F88C00D7F89030002B40F04881D7F8A2
:102170008C30002B40F043817B6818683B681968FD
:102180003B689B681A46FFF72CF83B685A697B68E6
:102190001B68DB68DB0803F003035B0002FA03F350
:1021A000C7F888303B681B69042B0AD07B68186825
:1021B0003B6819693B681A68D7F88830FEF774FFE6
:1021C0001DE17B681B6800211846FEF78FFF034660
:1021D000C3F31203002B0AD17B681B680021184649
:1021E000FEF784FF03469B0E03F01F0212E07B689C
:1021F0001B6800211846FEF779FF0346C7F88030B8
:10220000D7F8803093FAA3F3FB67FB6FB3FA83F33D
:10221000DBB21A463B681B68C3F31203002B05D1DF
:102220003B681B689B0E03F01F030AE03B681B68BA
:10223000BB67BB6F93FAA3F37B677B6FB3FA83F340
:10224000DBB29A4206D17B681B6800220021184647
:10225000FEF760FF7B681B6801211846FEF746FF0A
:102260000346C3F31203002B0AD17B681B680121CC
:102270001846FEF73BFF03469B0E03F01F0210E0DB
:102280007B681B6801211846FEF730FF03463B6759
:102290003B6F93FAA3F3FB66FB6EB3FA83F3DBB2F7
:1022A0001A463B681B68C3F31203002B05D13B6839
:1022B0001B689B0E03F01F030AE03B681B68BB66AC
:1022C000BB6E93FAA3F37B667B6EB3FA83F3DBB248
:1022D0009A4206D17B681B68002201211846FEF74E
:1022E00019FF7B681B6802211846FEF7FFFE0346B4
:1022F000C3F31203002B0AD17B681B680221184626
:10230000FEF7F4FE03469B0E03F01F0210E07B680D
:102310001B6802211846FEF7E9FE03463B663B6E4A
:1023200093FAA3F3FB65FB6DB3FA83F3DBB21A46B2
:102330003B681B68C3F31203002B05D13B681B6885
:102340009B0E03F01F030AE03B681B68BB65BB6D77
:1023500093FAA3F37B657B6DB3FA83F3DBB29A4206
:1023600006D17B681B68002202211846FEF7D2FEC8
:102370007B681B6803211846FEF7B8FE0346C3F3CB
:102380001203002B0AD17B681B6803211846FEF755
:10239000ADFE03469B0E03F01F0210E07B681B6836
:1023A00003211846FEF7A2FE03463B653B6D93FAF8
:1023B000A3F3FB64FB6CB3FA83F3DBB21A463B680E
:1023C0001B68C3F31203002B05D13B681B689B0EEF
:1023D00003F01F030AE03B681B68BB64BB6C93FA05
:1023E000A3F37B647B6CB3FA83F3DBB29A4206D12E
:1023F0007B681B68002203211846FEF78BFE7B6872
:102400001B681846FEF7B8FF0346002B40F00C810E
:102410007B6818683B6819683B68DB681A46FEF7FA
:1024200009FF3B68DB68AE4A934240F0FD807B6861
:1024300018683B681B68C3F31203002B0BD13B6881
:102440001B689B0E013303F01F03092B94BF01236C
:102450000023DBB212E03B681B683B643B6C93FAE1
:10246000A3F3FB63FB6BB3FA83F3DBB2013303F03B
:102470001F03092B94BF01230023DBB2002B64D080
:102480003B681B68C3F31203002B07D13B681B6832
:102490009B0E01339B0603F0F8420EE03B681B687D
:1024A000BB63BB6B93FAA3F37B637B6BB3FA83F3DE
:1024B000DBB201339B0603F0F8423B681B68C3F3B1
:1024C0001203002B09D13B681B689B0E013303F0FC
:1024D0001F03012101FA03F310E03B681B683B6313
:1024E0003B6B93FAA3F3FB62FB6AB3FA83F3DBB2B1
:1024F000013303F01F03012101FA03F342EA030150
:102500003B681B68C3F31203002B0AD13B681B68AE
:102510009B0E013303F01F0213465B0013441B059F
:1025200011E03B681B68BB62BB6A93FAA3F37B6252
:102530007B6AB3FA83F3DBB2013303F01F02134665
:102540005B0013441B050B4369E03B681B68C3F346
:102550001203002B07D13B681B689B0E01339B06BF
:1025600003F0F8420EE03B681B683B623B6A93FA5B
:10257000A3F3FB61FB69B3FA83F3DBB201339B0680
:1025800003F0F8423B681B68C3F31203002B09D128
:102590003B681B689B0E013303F01F03012101FA06
:1025A00003F310E03B681B68BB61BB6993FAA3F3BC
:1025B0007B617B69B3FA83F3DBB2013303F01F0362
:1025C000012101FA03F342EA03013B681B68C3F3EC
:1025D0001203002B0DD13B681B689B0E013303F0E7
:1025E0001F0213465B0013441E3B1B0543F00073A0
:1025F00014E03B681B683B613B6993FAA3F3FB6003
:10260000FB68B3FA83F3DBB2013303F01F02134616
:102610005B0013441E3B1B0543F000730B433A68F9
:1026200092681946FEF7DDFD3B681A682D4B134092
:10263000002B00F08D802C48FEF728FDC7F88400A1
:102640003B681B68294A93422BD1D7F8843003F4A6
:102650000003002B25D17B681B68254A934204D0D8
:102660007B681B68234A93426FD1D7F8843043F4C8
:10267000000319461C48FEF7F6FC1F4B1B689B091C
:102680001E4AA2FB03239A0913465B0013449B00D6
:10269000BB6002E0BB68013BBB60BB68002BF9D1AB
:1026A00053E03B681B68164A93422BD1D7F884301D
:1026B00003F08073002B25D17B681B680C4A934282
:1026C00004D07B681B680B4A934240D1D7F8843012
:1026D00043F0807319460448FEF7C5FC37E000BF9D
:1026E00000007F400000088000030450000052C733
:1026F000000004500002045028000020632D3E0515
:10270000000084CB3B681B68164A934220D1D7F85F
:10271000843003F48003002B1AD17B681B68124AB3
:10272000934215D1D7F8843043F4800319460F48FB
:10273000FEF799FC0CE07B685B6D43F020027B6840
:102740005A65012387F8973002E000BF00E000BF20
:102750007B68002283F8502097F897301846983706
:10276000BD4680BD010000800000045000030450FD
:1027700080B584B000AF78607B681B681846FEF7B0
:10278000FBFD0346002B46D17B681B689A68244BEF
:102790001340002B0DD07B685B6D43F010027B680B
:1027A0005A657B689B6D43F001027B689A65012343
:1027B00032E07B681B681846FEF7CAFDFEF734FC62
:1027C000F86021E07B681B681846FEF7D5FD0346DC
:1027D000002B04D17B681B681846FEF7B9FDFEF795
:1027E00023FC0246FB68D31A022B0DD97B685B6D74
:1027F00043F010027B685A657B689B6D43F00102D1
:102800007B689A65012307E07B681B681B6803F0FF
:102810000103012BD6D1002318461037BD4680BDD9
:102820003F00008080B483B000AF78607B689B6815
:1028300003F00103012B01D1012300E0002318461E
:102840000C37BD465DF8047B704780B483B000AFA1
:1028500078607B689B6803F00403042B01D101239B
:1028600000E0002318460C37BD465DF8047B704736
:1028700080B483B000AF786000BF0C37BD465DF810
:10288000047B704780B483B000AF786000BF0C3722
:10289000BD465DF8047B704780B483B000AF7860BC
:1028A00000BF0C37BD465DF8047B704780B483B031
:1028B00000AF786000BF0C37BD465DF8047B704701
:1028C00080B483B000AF786000BF0C37BD465DF8C0
:1028D000047B704790B59FB000AF786039600023EB
:1028E00087F877307B6893F85030012B01D10223B1
:1028F0008FE07B68012283F850207B681B68474A81
:10290000934202D1464BBB6001E00023BB60BB6831
:10291000002B0BD17B685B6D43F020027B685A650E
:102920007B68002283F85020012372E0BB681846C0
:10293000FFF78BFF38677B681B681846FFF785FF3A
:102940000346002B54D13B6F002B51D1354BFB6616
:102950003B681B68002B2CD0FB6E9B6823F4604205
:102960003B6859687B6893F830305B030B431A432C
:10297000FB6E9A602948FFF755FF04462848FFF789
:1029800051FF03461C432848FFF74CFF03462343EF
:10299000002B37D1FB6E9B6823F4716323F00F0388
:1029A0003A6811683A6892680A431A43FB6E9A6063
:1029B00028E0FB6E9B6823F46042FB6E9A60174828
:1029C000FFF730FF04461648FFF72CFF03461C4371
:1029D0001548FFF727FF03462343002B12D1FB6E58
:1029E0009B6823F4716323F00F03FA6E936009E090
:1029F0007B685B6D43F020027B685A65012387F892
:102A0000773000E000BF7B68002283F8502097F801
:102A1000773018467C37BD4690BD00BF000004509B
:102A200000010450000304500002045080B485B03B
:102A300000AF78607B6803F00703FB600C4BDB683A
:102A4000BB60BA684FF6FF031340BB60FB681A0215
:102A5000BB68134343F0BF6343F40033BB60044AD5
:102A6000BB68D36000BF1437BD465DF8047B704778
:102A700000ED00E080B400AF044BDB681B0A03F0FC
:102A800007031846BD465DF8047B704700ED00E083
:102A900080B483B000AF0346FB7197F90730002B79
:102AA0000BDB094997F907305B09FA7902F01F023D
:102AB000012000FA02F241F8232000BF0C37BD4686
:102AC0005DF8047B704700BF00E100E080B483B094
:102AD00000AF03463960FB7197F90730002B0ADB22
:102AE0000D4997F907303A68D2B21201D2B20B44BD
:102AF00083F800230AE00949FB7903F00F03043B44
:102B00003A68D2B21201D2B20B441A7600BF0C3727
:102B1000BD465DF8047B704700E100E000ED00E099
:102B200080B489B000AFF860B9607A60FB6803F0E8
:102B30000703FB61FB69C3F10703042B28BF0423D0
:102B4000BB61FB690433062B02D9FB69033B00E040
:102B500000237B610122BB6902FA03F35A1EBB68A2
:102B60001A407B699A4001217B6901FA03F3591EDF
:102B70007B680B40134318462437BD465DF8047B41
:102B80007047000080B582B000AF78607B68013B81
:102B9000B3F1807F01D301230FE00A4A7B68013B38
:102BA00053600F214FF0FF30FFF790FF054B0022DD
:102BB0009A60044B07221A60002318460837BD4666
:102BC00080BD00BF10E000E080B582B000AF78604B
:102BD0007868FFF72BFF00BF0837BD4680BD80B582
:102BE00086B000AF0346B9607A60FB7300237B6157
:102BF000FFF740FF78617A68B9687869FFF790FF5E
:102C0000024697F90F3011461846FFF75FFF00BFE5
:102C10001837BD4680BD80B582B000AF0346FB715A
:102C200097F907301846FFF733FF00BF0837BD4656
:102C300080BD80B582B000AF78607868FFF7A2FFF2
:102C4000034618460837BD4680BD80B584B000AF46
:102C500078600023FB737B6893F82530DBB2022B8E
:102C600005D07B680422DA630123FB7329E07B68CB
:102C70001B687A681268126822F00E021A607B687C
:102C80001B687A681268126822F001021A607B6879
:102C90001B6C7A68526C02F01C02012101FA02F2EC
:102CA0005A607B68012283F825207B68002283F824
:102CB00024207B689B6B002B03D07B689B6B786820
:102CC0009847FB7B18461037BD4680BD80B487B05F
:102CD00000AF7860396000237B617FE13B681A6850
:102CE00001217B6901FA03F31340FB60FB68002BB1
:102CF00000F071813B685B68022B03D03B685B6826
:102D0000122B23D17B69DA087B68083253F8223012
:102D10003B617B6903F007039B000F2202FA03F378
:102D2000DB433A6913403B613B681A697B6903F0F6
:102D300007039B0002FA03F33A6913433B617B6983
:102D4000DA087B680832396943F822107B681B680F
:102D50003B617B695B00032202FA03F3DB433A69C0
:102D600013403B613B685B6803F003027B695B00D7
:102D700002FA03F33A6913433B617B683A691A60CC
:102D80003B685B68012B0BD03B685B68022B07D06C
:102D90003B685B68112B03D03B685B68122B30D11A
:102DA0007B689B683B617B695B00032202FA03F34B
:102DB000DB433A6913403B613B68DA687B695B003F
:102DC00002FA03F33A6913433B617B683A699A60FC
:102DD0007B685B683B6101227B6902FA03F3DB439A
:102DE0003A6913403B613B685B681B0903F00102D1
:102DF0007B6902FA03F33A6913433B617B683A69E2
:102E00005A603B685B6803F00303032B18D17B68AF
:102E1000DB6A3B6101227B6902FA03F3DB433A6917
:102E200013403B613B685B68DB0803F001027B6990
:102E300002FA03F33A6913433B617B683A69DA6249
:102E40007B68DB683B617B695B00032202FA03F36A
:102E5000DB433A6913403B613B689A687B695B00DE
:102E600002FA03F33A6913433B617B683A69DA601B
:102E70003B685B6803F08053002B00F0AC805E4A37
:102E80005D4B1B6E43F0010313665B4B1B6E03F03F
:102E90000103BB60BB68594A7B699B08023352F847
:102EA00023303B617B6903F003039B000F2202FA8E
:102EB00003F3DB433A6913403B617B68B3F1904F06
:102EC00025D07B684E4A93421FD07B684D4A93427F
:102ED00019D07B684C4A934213D07B684B4A93428B
:102EE0000DD07B684A4A934207D07B68494A934297
:102EF00001D106230CE007230AE0052308E00423A0
:102F000006E0032304E0022302E0012300E00023A3
:102F10007A6902F00302920093403A6913433B61DD
:102F200036497B699B0802333A6941F823203A4BC2
:102F30001B683B61FB68DB433A6913403B613B68BC
:102F40005B6803F48033002B03D03A69FB681343BA
:102F50003B61314A3B6913602F4B5B683B61FB6807
:102F6000DB433A6913403B613B685B6803F4003321
:102F7000002B03D03A69FB6813433B61264A3B6947
:102F80005360254B9B683B61FB68DB433A69134008
:102F90003B613B685B6803F48013002B03D03A6904
:102FA000FB6813433B611C4A3B6993601A4BDB6827
:102FB0003B61FB68DB433A6913403B613B685B68FC
:102FC00003F40013002B03D03A69FB6813433B6101
:102FD000114A3B69D3607B6901337B613B681A68A6
:102FE0007B6922FA03F3002B7FF478AE00BF1C3715
:102FF000BD465DF8047B70470010024000000140B0
:103000000004004800080048000C00480010004878
:1030100000140048001800480004014080B485B046
:1030200000AF78600B467B807B681A697B88134011
:10303000002B02D00123FB7301E00023FB73FB7B19
:1030400018461437BD465DF8047B704780B483B0E2
:1030500000AF78600B467B8013467B707B78002B3B
:1030600003D07A887B689A6102E07A887B689A62EA
:1030700000BF0C37BD465DF8047B704780B582B059
:1030800000AF0346FB80084B5A69FB881340002BB6
:1030900006D0054AFB885361FB88184603F098FF69
:1030A00000BF0837BD4680BD0004014080B400AFBA
:1030B000044B1B6803F4C0631846BD465DF8047BEF
:1030C000704700BF0070004080B485B000AF7860EA
:1030D0007B68B3F5007F30D1234B1B6803F4C063DA
:1030E000B3F5007F38D0204A1F4B1B6823F4C06320
:1030F00043F4007313601D4B1B68322202FB03F381
:103100001B4AA2FB03239B0C0133FB6002E0FB681C
:10311000013BFB60144B5B6903F48063B3F5806F84
:1031200002D1FB68002BF2D10F4B5B6903F4806383
:10313000B3F5806F10D103230FE00B4B1B6803F432
:10314000C063B3F5806F07D0074A074B1B6823F4B1
:10315000C06343F480631360002318461437BD46F0
:103160005DF8047B704700BF00700040280000201D
:1031700083DE1B4380B588B000AF78607B68002B8E
:1031800001D101239DE3A44B9B6803F00C03BB61B9
:10319000A14BDB6803F003037B617B681B6803F0D2
:1031A0001003002B00F0E180BB69002B07D0BB6946
:1031B0000C2B40F088807B69012B40F08480964B7B
:1031C0001B6803F00203002B05D07B689B69002B72
:1031D00001D1012375E37B681A6A8F4B1B6803F0EA
:1031E0000803002B04D08C4B1B6803F0F00305E0B0
:1031F000894BD3F894301B0903F0F0039A4223D98A
:103200007B681B6A184600F009FD0346002B01D0BD
:10321000012356E3804A804B1B6843F00803136088
:103220007D497D4B1B6823F0F0027B681B6A1343CA
:103230000B607949784B5B6823F47F427B68DB69DC
:103240001B0213434B6022E0734A734B1B6843F02D
:10325000080313607049704B1B6823F0F0027B6811
:103260001B6A13430B606C496B4B5B6823F47F4212
:103270007B68DB691B0213434B607B681B6A184643
:1032800000F0CCFC0346002B01D0012319E300F031
:1032900003FC0146604B9B681B0903F00F035F4A68
:1032A000D35C03F01F0321FA03F35D4A13605D4B07
:1032B0001B681846FDF76CFE0346FB73FB7B002B77
:1032C00052D0FB7BFDE27B689B69002B32D0524AD7
:1032D000514B1B6843F001031360FDF7A5FE3861F5
:1032E00008E0FDF7A1FE02463B69D31A022B01D983
:1032F0000323E6E2484B1B6803F00203002BF0D0E7
:10330000454A454B1B6843F0080313604249424B52
:103310001B6823F0F0027B681B6A13430B603E4975
:103320003D4B5B6823F47F427B68DB691B021343E0
:103330004B601AE0384A384B1B6823F001031360D6
:10334000FDF772FE386108E0FDF76EFE02463B694C
:10335000D31A022B01D90323B3E22F4B1B6803F0CE
:103360000203002BF0D100E000BF7B681B6803F074
:103370000103002B74D0BB69082B05D0BB690C2B53
:103380000ED17B69032B0BD1234B1B6803F4003355
:10339000002B64D07B685B68002B60D1012390E236
:1033A0007B685B68B3F5803F06D11B4A1A4B1B68EC
:1033B00043F4803313601DE07B685B68B3F5A02F96
:1033C0000CD1154A144B1B6843F480231360124A36
:1033D000114B1B6843F4803313600BE00E4A0E4B15
:1033E0001B6823F4803313600B4A0B4B1B6823F4D8
:1033F000802313607B685B68002B1CD0FDF714FEF4
:10340000386111E0FDF710FE02463B69D31A642BC8
:103410000AD9032355E200BF00100240CC990008EE
:103420002800002000000020AE4B1B6803F400338E
:10343000002BE7D014E0FDF7F7FD386108E0FDF759
:10344000F3FD02463B69D31A642B01D9032338E20A
:10345000A44B1B6803F40033002BF0D100E000BF45
:103460007B681B6803F00203002B60D0BB69042B50
:1034700005D0BB690C2B19D17B69022B16D1994B56
:103480001B6803F48063002B05D07B68DB68002B8E
:1034900001D1012315E29349924B5B6823F0F85266
:1034A0007B681B691B0613434B6040E07B68DB684D
:1034B000002B23D08B4A8B4B1B6843F48073136023
:1034C000FDF7B2FD386108E0FDF7AEFD02463B694D
:1034D000D31A022B01D90323F3E1824B1B6803F4B7
:1034E0008063002BF0D07F497E4B5B6823F0F8525D
:1034F0007B681B691B0613434B6018E0794A794BC4
:103500001B6823F480731360FDF78EFD386108E0BB
:10351000FDF78AFD02463B69D31A022B01D903232A
:10352000CFE1704B1B6803F48063002BF0D17B6804
:103530001B6803F00803002B3CD07B685B69002B01
:103540001CD0684A674BD3F8943043F00103C2F8AB
:103550009430FDF769FD386108E0FDF765FD02462E
:103560003B69D31A022B01D90323AAE15D4BD3F89F
:10357000943003F00203002BEFD01BE0594A594B63
:10358000D3F8943023F00103C2F89430FDF74CFDDA
:10359000386108E0FDF748FD02463B69D31A022B6B
:1035A00001D903238DE14F4BD3F8943003F002038C
:1035B000002BEFD17B681B6803F00403002B00F0A5
:1035C000A5800023FB77474B9B6D03F08053002BB6
:1035D0000DD1444A434B9B6D43F080539365414B5F
:1035E0009B6D03F08053BB60BB680123FB773E4BB0
:1035F0001B6803F48073002B18D13B4A3A4B1B68BD
:1036000043F480731360FDF70FFD386108E0FDF7A8
:103610000BFD02463B69D31A022B01D9032350E16B
:10362000314B1B6803F48073002BF0D07B689B68E0
:10363000012B08D12B4A2B4BD3F8903043F00103D8
:10364000C2F8903024E07B689B68052B10D1254A96
:10365000244BD3F8903043F00403C2F89030214A51
:10366000204BD3F8903043F00103C2F890300FE0C4
:103670001C4A1C4BD3F8903023F00103C2F8903061
:10368000184A184BD3F8903023F00403C2F8903056
:103690007B689B68002B16D0FDF7C6FC38610AE0FA
:1036A000FDF7C2FC02463B69D31A41F288329342CD
:1036B00001D9032305E10B4BD3F8903003F002034B
:1036C000002BEDD019E0FDF7AFFC38610EE0FDF7FF
:1036D000ABFC02463B69D31A41F28832934205D9CA
:1036E0000323EEE00010024000700040774BD3F857
:1036F000903003F00203002BE9D1FB7F012B05D1B1
:10370000724A724B9B6D23F0805393657B689B6A72
:10371000002B00F0D580BB690C2B00F08E807B68FD
:103720009B6A022B5BD1694A684B1B6823F080734C
:103730001360FDF779FC386108E0FDF775FC02467F
:103740003B69D31A022B01D90323BAE05F4B1B68F4
:1037500003F00073002BF0D15C485C4BDA685C4BE3
:1037600013407A68D16A7A68126B013A12011143E8
:103770007A68526B120211437A68D26B5208013A8E
:10378000520511437A68126C5208013A52061143ED
:103790007A68926B120952040A431343C3604B4A7E
:1037A0004A4B1B6843F080731360484A474BDB6801
:1037B00043F08073D360FDF737FC386108E0FDF714
:1037C00033FC02463B69D31A022B01D9032378E06C
:1037D0003E4B1B6803F00073002BF0D070E03B4AB7
:1037E0003A4B1B6823F080731360384B1B6803F05F
:1037F0002053002B05D1354A344BDB6823F00303FB
:10380000D360324A314BDB6823F0887323F4803372
:10381000D360FDF709FC386108E0FDF705FC0246BE
:103820003B69D31A022B01D903234AE0274B1B68BB
:1038300003F00073002BF0D142E07B689B6A012B00
:1038400001D101233DE0214BDB687B617B6903F003
:1038500003027B68DB6A9A4230D17B6903F0700215
:103860007B681B6B013B1B019A4227D17B6903F4E8
:10387000FE427B685B6B1B029A421FD17B6903F49B
:1038800000337A68926B072A14BF01220022D2B259
:10389000934213D17B6903F4C0027B68DB6B5B0846
:1038A000013B5B059A4209D17B6903F0C0627B68EA
:1038B0001B6C5B08013B5B069A4201D0012300E0D0
:1038C000002318462037BD4680BD00BF00100240CF
:1038D0008C809DF980B584B000AF786039607B68DA
:1038E000002B01D10123C8E0664B1B6803F00702DF
:1038F0003B689A4210D26349624B1B6823F007026F
:103900003B6813430B605F4B1B6803F007023B6887
:103910009A4201D00123B0E07B681B6803F00103E9
:10392000002B4CD07B685B68032B07D1564B1B6880
:1039300003F00073002B21D101239EE07B685B68BC
:10394000022B07D1504B1B6803F40033002B15D119
:10395000012392E07B685B68002B07D14A4B1B6810
:1039600003F00203002B09D1012386E0464B1B68BC
:1039700003F48063002B01D101237EE04249424BD6
:103980009B6823F003027B685B6813438B60FDF741
:103990004BFBF8600AE0FDF747FB0246FB68D31AD1
:1039A00041F28832934201D9032366E0364B9B688B
:1039B00003F00C027B685B689B009A42EBD17B684A
:1039C0001B6803F00203002B08D02F492E4B9B6885
:1039D00023F0F0027B689B6813438B60294B1B68C4
:1039E00003F007023B689A4210D92649254B1B6811
:1039F00023F007023B6813430B60224B1B6803F064
:103A000007023B689A4201D0012336E07B681B68BD
:103A100003F00403002B08D01B491B4B9B6823F4C5
:103A2000E0627B68DB6813438B607B681B6803F094
:103A30000803002B09D01449134B9B6823F46052F0
:103A40007B681B69DB0013438B6000F025F801469F
:103A50000D4B9B681B0903F00F030C4AD35C03F06A
:103A60001F0321FA03F30A4A13600A4B1B68184626
:103A7000FDF78EFA0346FB72FB7A18461037BD46F7
:103A800080BD00BF0020024000100240CC99000819
:103A9000280000200000002080B489B000AF00237F
:103AA000FB610023BB613D4B9B6803F00C033B6152
:103AB0003A4BDB6803F00303FB603B69002B05D046
:103AC0003B690C2B21D1FB68012B1ED1334B1B68AA
:103AD00003F00803002B07D1304BD3F894301B0AB6
:103AE00003F00F03FB6105E02C4B1B681B0903F07F
:103AF0000F03FB612A4AFB6952F82330FB613B69E3
:103B0000002B0DD1FB69BB610AE03B69042B02D19C
:103B1000244BBB6104E03B69082B01D1224BBB6104
:103B20003B690C2B33D11D4BDB6803F00303BB60F7
:103B3000BB68022B02D0032B03D005E0194B7B613D
:103B400005E0194B7B6102E0FB697B6100BF134B11
:103B5000DB681B0903F0070301337B600F4BDB6855
:103B60001B0A03F07F037A6902FB03F27B68B2FB56
:103B7000F3F37B61094BDB685B0E03F00303013356
:103B80005B003B607A693B68B2FBF3F3BB61BB69E6
:103B900018462437BD465DF8047B7047001002408C
:103BA000E49900080024F40000127A0080B400AF09
:103BB000034B1B681846BD465DF8047B704700BF89
:103BC0002800002080B500AFFFF7F0FF0146064B4C
:103BD0009B681B0A03F00703044AD35C03F01F032E
:103BE00021FA03F3184680BD00100240DC9900085A
:103BF00080B500AFFFF7DAFF0146064B9B68DB0A92
:103C000003F00703044AD35C03F01F0321FA03F314
:103C1000184680BD00100240DC99000880B586B0CF
:103C200000AF786000233B612A4B9B6D03F080530B
:103C3000002B03D0FFF73AFA786114E0254A254BB0
:103C40009B6D43F080539365224B9B6D03F0805333
:103C5000FB60FB68FFF72AFA78611E4A1D4B9B6DDB
:103C600023F0805393657B69B3F5007F0BD17B68AC
:103C7000802B19D97B68A02B02D902233B6113E06A
:103C800001233B6110E07B68802B02D903233B6159
:103C90000AE07B68802B02D102233B6104E07B6851
:103CA000702B01D101233B610B490B4B1B6823F0A7
:103CB00007023B6913430B60074B1B6803F00702C5
:103CC0003B699A4201D0012300E0002318461837CF
:103CD000BD4680BD001002400020024080B586B085
:103CE00000AF78600023FB740023BB747B681B6803
:103CF00003F40063002B3FD07B685B6EB3F5800F4D
:103D00001CD0B3F5800F02D8002B0ED01FE0B3F506
:103D1000000F03D0B3F5400F1CD018E0854A854B47
:103D2000DB6843F48033D36015E07B680433002103
:103D3000184600F0B9FA0346FB740CE07B682033A8
:103D40000021184600F0A0FB0346FB7403E00123AA
:103D5000FB7400E000BFFB7C002B0BD17549754B59
:103D6000D3F8883023F440027B685B6E1343C1F8BC
:103D7000883001E0FB7CBB747B681B6803F48053D4
:103D8000002B3FD07B689B6EB3F1807F1CD0B3F1DA
:103D9000807F02D8002B0ED01FE0B3F1007F03D04C
:103DA000B3F1407F1CD018E0624A624BDB6843F4F9
:103DB0008033D36015E07B6804330021184600F09F
:103DC00073FA0346FB740CE07B682033002118462D
:103DD00000F05AFB0346FB7403E00123FB7400E090
:103DE00000BFFB7C002B0BD15249524BD3F88830DB
:103DF00023F040727B689B6E1343C1F8883001E06A
:103E0000FB7CBB747B681B6803F40033002B00F061
:103E1000A08000237B74474B9B6D03F08053002BE5
:103E200001D1012300E00023002B0DD0414A414B7A
:103E30009B6D43F0805393653E4B9B6D03F0805325
:103E4000BB60BB6801237B743B4A3B4B1B6843F45C
:103E500080731360FDF7E8F8F86009E0FDF7E4F817
:103E60000246FB68D31A022B02D90323FB7405E038
:103E7000314B1B6803F48073002BEFD0FB7C002BCD
:103E80005CD12C4BD3F8903003F440737B617B6999
:103E9000002B1FD07B68D3F884207B699A4219D00D
:103EA000244BD3F8903023F440737B61214A214B9B
:103EB000D3F8903043F48033C2F890301D4A1D4B44
:103EC000D3F8903023F48033C2F89030194A7B69DC
:103ED000C2F890307B6903F00103002B16D0FDF788
:103EE000A3F8F8600BE0FDF79FF80246FB68D31AD1
:103EF00041F28832934202D90323FB7406E00D4B52
:103F0000D3F8903003F00203002BECD0FB7C002BA5
:103F10000CD10849074BD3F8903023F440727B68EA
:103F2000D3F884301343C1F8903009E0FB7CBB74B4
:103F300006E000BF0010024000700040FB7CBB7434
:103F40007B7C012B05D19E4A9D4B9B6D23F08053BA
:103F500093657B681B6803F00103002B0AD0984926
:103F6000974BD3F8883023F003027B689B6B134395
:103F7000C1F888307B681B6803F00203002B0AD06D
:103F80008F498F4BD3F8883023F00C027B68DB6BB2
:103F90001343C1F888307B681B6803F00403002BCF
:103FA0000AD08749864BD3F8883023F030027B68EB
:103FB0001B6C1343C1F888307B681B6803F008034F
:103FC000002B0AD07E497E4BD3F8883023F0C00204
:103FD0007B685B6C1343C1F888307B681B6803F017
:103FE0001003002B0AD07649754BD3F8883023F4A0
:103FF00040727B689B6C1343C1F888307B681B68F8
:1040000003F02003002B0AD06D496D4BD3F88830A4
:1040100023F440627B68DB6C1343C1F888307B6813
:104020001B6803F40073002B0AD06549644BD3F876
:10403000883023F440227B68DB6D1343C1F888305D
:104040007B681B6803F48063002B0AD05C495C4BDF
:10405000D3F8883023F440127B681B6E1343C1F8F9
:1040600088307B681B6803F04003002B0AD054495A
:10407000534BD3F8883023F440527B681B6D1343B5
:10408000C1F888307B681B6803F08003002B0AD0DE
:104090004B494B4BD3F8883023F440427B685B6D2F
:1040A0001343C1F888307B681B6803F48073002BCE
:1040B0000AD04349424BD3F8883023F440327B681E
:1040C0009B6D1343C1F888307B681B6803F4005371
:1040D000002B28D03A493A4BD3F8883023F040627D
:1040E0007B68DB6E1343C1F888307B68DB6EB3F10D
:1040F000006F06D1324A324BDB6843F48013D36041
:1041000011E07B68DB6EB3F1806F0CD17B68043308
:104110000121184600F0C8F80346FB74FB7C002B15
:1041200001D0FB7CBB747B681B6803F40023002B6D
:1041300028D02349224BD3F8883023F040627B6893
:104140001B6F1343C1F888307B681B6FB3F1006F9E
:1041500006D11B4A1A4BDB6843F48013D36011E08D
:104160007B681B6FB3F1806F0CD17B680433012136
:10417000184600F099F80346FB74FB7C002B01D035
:10418000FB7CBB747B681B6803F48023002B2BD063
:104190000B490B4BD3F8883023F040627B685B6F90
:1041A0001343C1F888307B685B6FB3F1006F09D1AE
:1041B000034A034BDB6843F48013D36014E000BF71
:1041C000001002407B685B6FB3F1806F0CD17B689D
:1041D00004330121184600F067F80346FB74FB7CAA
:1041E000002B01D0FB7CBB747B681B6803F480430D
:1041F000002B2FD02B492B4BD3F8883023F0405283
:104200007B689B6F1343C1F888307B689B6FB3F169
:10421000805F0DD17B6804330221184600F044F81A
:104220000346FB74FB7C002B14D0FB7CBB7411E0B9
:104230007B689B6FB3F1005F0CD17B682033022158
:10424000184600F021F90346FB74FB7C002B01D0DB
:10425000FB7CBB747B681B6803F40043002B0AD013
:104260001049104BD3F8883023F080427B68DB6F15
:104270001343C1F888307B681B6803F48033002B3C
:104280000BD00849074BD3F8883023F000427B68F5
:10429000D3F880301343C1F88830BB7C18461837F8
:1042A000BD4680BD0010024080B584B000AF78608C
:1042B00039600023FB73734BDB6803F00303002BAF
:1042C00018D0704BDB6803F003027B681B689A42CE
:1042D0000DD17B681B68002B09D06A4BDB681B097A
:1042E00003F007035A1C7B685B689A4244D00123A1
:1042F000FB7341E07B681B68022B0CD0032B13D0AF
:10430000012B20D15F4B1B6803F00203002B1DD152
:104310000123FB731AE05B4B1B6803F48063002BE3
:1043200016D10123FB7313E0564B1B6803F40033D3
:10433000002B0FD1534B1B6803F48023002B09D1B2
:104340000123FB7306E00123FB7304E000BF02E0DE
:1043500000BF00E000BFFB7B002B0DD14948494B5B
:10436000DB6823F073027B6819687B685B68013B3C
:104370001B010B431343C360FB7B002B7DD1414AE0
:10438000404B1B6823F080631360FCF74DFEB86060
:1043900009E0FCF749FE0246BB68D31A022B02D99A
:1043A0000323FB7305E0374B1B6803F00063002B0E
:1043B000EFD1FB7B002B60D13B68002B11D1314842
:1043C000304B1B6923F41F3323F440737A689268DF
:1043D00011027A68D268120952040A431343036136
:1043E00027E03B68012B12D12648264B1B6923F49A
:1043F000C00323F4FE437A68926811027A68126956
:104400005208013A52050A431343036111E01D4863
:104410001C4B1B6923F0C06323F4FE437A68926847
:1044200011027A6852695208013A52060A4313434C
:104430000361144A134B1B6843F080631360FCF75D
:10444000F3FDB86009E0FCF7EFFD0246BB68D31A44
:10445000022B02D90323FB7305E00A4B1B6803F010
:104460000063002BEFD0FB7B002B06D10549054BE9
:104470001A697B689B6913430B61FB7B18461037F5
:10448000BD4680BD0010024080B584B000AF7860AA
:1044900039600023FB73684BDB6803F00303002BD8
:1044A00018D0654BDB6803F003027B681B689A42F7
:1044B0000DD17B681B68002B09D05F4BDB681B09A3
:1044C00003F007035A1C7B685B689A4244D00123BF
:1044D000FB7341E07B681B68022B0CD0032B13D0CD
:1044E000012B20D1544B1B6803F00203002B1DD17C
:1044F0000123FB731AE0504B1B6803F48063002B0D
:1045000016D10123FB7313E04B4B1B6803F40033FC
:10451000002B0FD1484B1B6803F48023002B09D1DB
:104520000123FB7306E00123FB7304E000BF02E0FC
:1045300000BF00E000BFFB7B002B0DD13E483E4B8F
:10454000DB6823F073027B6819687B685B68013B5A
:104550001B010B431343C360FB7B002B67D1364A1F
:10456000354B1B6823F080531360FCF75DFDB8608A
:1045700009E0FCF759FD0246BB68D31A022B02D9A9
:104580000323FB7305E02C4B1B6803F00053002B47
:10459000EFD1FB7B002B4AD13B68002B11D1264881
:1045A000254B5B6923F41F3323F440737A689268C8
:1045B00011027A68D268120952040A431343436114
:1045C00011E01D481C4B5B6923F0C06323F4FE43DC
:1045D0007A68926811027A6812695208013A5206A2
:1045E0000A4313434361144A134B1B6843F080533F
:1045F0001360FCF719FDB86009E0FCF715FD0246F1
:10460000BB68D31A022B02D90323FB7305E00A4BC4
:104610001B6803F00053002BEFD0FB7B002B06D16F
:104620000549054B5A697B685B6913434B61FB7B0A
:1046300018461037BD4680BD0010024080B582B0DC
:1046400000AF78607B68002B01D101231DE07B68FF
:1046500093F83D30DBB2002B06D17B68002283F853
:104660003C20786802F0E0FF7B68022283F83D205E
:104670007B681A687B6804331946104600F0DCFB3F
:104680007B68012283F83D20002318460837BD4689
:1046900080BD000080B485B000AF78607B681B6887
:1046A0007A681268D26842F00102DA607B681B689F
:1046B0009A680C4B1340FB60FB68062B0BD0FB6821
:1046C000B3F5803F07D07B681B687A681268126870
:1046D00042F001021A60002318461437BD465DF807
:1046E000047B70470700010080B582B000AF78609E
:1046F0007B68002B01D101231DE07B6893F83D30DE
:10470000DBB2002B06D17B68002283F83C2078685E
:1047100000F015F87B68022283F83D207B681A6858
:104720007B6804331946104600F086FB7B68012243
:1047300083F83D20002318460837BD4680BD80B46D
:1047400083B000AF786000BF0C37BD465DF8047BD6
:104750007047000080B584B000AF786039607B6836
:104760001B6801223968184600F070FF7B681B68DF
:104770001E4A934213D07B681B681D4A93420ED099
:104780007B681B681B4A934209D07B681B681A4AE6
:10479000934204D07B681B68184A934201D10123DD
:1047A00000E00023002B07D07B681B687A68126842
:1047B000526C42F400425A647B681B689A68104B42
:1047C0001340FB60FB68062B0BD0FB68B3F5803F02
:1047D00007D07B681B687A681268126842F0010291
:1047E0001A60002318461037BD4680BD002C0140DA
:1047F00000340140004001400044014000480140B5
:104800000700010080B582B000AF78607B681B684C
:104810001B6903F00203022B22D17B681B68DB6853
:1048200003F00203022B1BD17B681B686FF00202AE
:104830001A617B6801221A777B681B689B6903F009
:104840000303002B03D0786800F0D7FA05E07868FE
:1048500000F0C9FA786800F0DAFA7B6800221A776B
:104860007B681B681B6903F00403042B22D17B685F
:104870001B68DB6803F00403042B1BD17B681B68F7
:104880006FF004021A617B6802221A777B681B684A
:104890009B6903F44073002B03D0786800F0ADFAF5
:1048A00005E0786800F09FFA786800F0B0FA7B685D
:1048B00000221A777B681B681B6903F00803082B2A
:1048C00022D17B681B68DB6803F00803082B1BD12F
:1048D0007B681B686FF008021A617B6804221A77F4
:1048E0007B681B68DB6903F00303002B03D0786847
:1048F00000F083FA05E0786800F075FA786800F057
:1049000086FA7B6800221A777B681B681B6903F0B4
:104910001003102B22D17B681B68DB6803F01003A7
:10492000102B1BD17B681B686FF010021A617B682B
:1049300008221A777B681B68DB6903F44073002B3D
:1049400003D0786800F059FA05E0786800F04BFA77
:10495000786800F05CFA7B6800221A777B681B6835
:104960001B6903F00103012B0ED17B681B68DB6818
:1049700003F00103012B07D17B681B686FF0010274
:104980001A61786802F074FB7B681B681B6903F08E
:104990008003802B0ED17B681B68DB6803F08003EB
:1049A000802B07D17B681B686FF080021A617868E2
:1049B00000F0D8FE7B681B681B6903F48073B3F5B5
:1049C000807F0ED17B681B68DB6803F08003802B3F
:1049D00007D17B681B686FF480721A61786800F0F9
:1049E000CBFE7B681B681B6903F04003402B0ED194
:1049F0007B681B68DB6803F04003402B07D17B68B2
:104A00001B686FF040021A61786800F00AFA7B6850
:104A10001B681B6903F02003202B0ED17B681B68E9
:104A2000DB6803F02003202B07D17B681B686FF045
:104A300020021A61786800F08BFE00BF0837BD467F
:104A400080BD000080B584B000AFF860B9607A60C6
:104A5000FB6893F83C30012B01D1022305E1FB6890
:104A6000012283F83C20FB68022283F83D207B680A
:104A7000142B00F2F08001A252F823F0D14A000872
:104A8000574C0008574C0008574C0008114B0008C1
:104A9000574C0008574C0008574C0008534B00086F
:104AA000574C0008574C0008574C0008934B00081F
:104AB000574C0008574C0008574C0008D54B0008CD
:104AC000574C0008574C0008574C0008154C00087C
:104AD000FB681B68B968184600F048FAFB681B6859
:104AE000FA681268926942F008029A61FB681B68D2
:104AF000FA681268926922F004029A61FB681B68E6
:104B0000FA6812689169BA6812690A439A61A3E067
:104B1000FB681B68B968184600F0B8FAFB681B68A8
:104B2000FA681268926942F400629A61FB681B6835
:104B3000FA681268926922F480629A61FB681B68C5
:104B4000FA6812689169BA68126912020A439A6196
:104B500082E0FB681B68B968184600F021FBFB681F
:104B60001B68FA681268D26942F00802DA61FB68D1
:104B70001B68FA681268D26922F00402DA61FB68E5
:104B80001B68FA681268D169BA6812690A43DA6167
:104B900062E0FB681B68B968184600F089FBFB6897
:104BA0001B68FA681268D26942F40062DA61FB6835
:104BB0001B68FA681268D26922F48062DA61FB68C5
:104BC0001B68FA681268D169BA68126912020A434E
:104BD000DA6141E0FB681B68B968184600F0D2FB57
:104BE000FB681B68FA681268526D42F008025A6549
:104BF000FB681B68FA681268526D22F004025A655D
:104C0000FB681B68FA681268516DBA6812690A433A
:104C10005A6521E0FB681B68B968184600F016FC6D
:104C2000FB681B68FA681268526D42F400625A65AC
:104C3000FB681B68FA681268526D22F480625A653C
:104C4000FB681B68FA681268516DBA681269120233
:104C50000A435A6500E000BFFB68012283F83D204B
:104C6000FB68002283F83C20002318461037BD461D
:104C700080BD00BF80B584B000AF786039607B68CC
:104C800093F83C30012B01D10223A8E07B6801227C
:104C900083F83C207B68022283F83D207B681B68F8
:104CA0009B68FB60FB6823F4803323F07703FB6091
:104CB000FB6823F47F43FB607B681B68FA689A609B
:104CC0003B681B68402B67D0402B0BD8102B73D050
:104CD000102B02D8002B6FD078E0202B6CD0302B1B
:104CE0006AD073E0702B0DD0702B04D8502B33D0CA
:104CF000602B41D06AE0B3F5805F66D0B3F5005F0A
:104D000017D063E07B6818683B6899683B685A680D
:104D10003B68DB6800F07AFC7B681B689B68FB6083
:104D2000FB6843F07703FB607B681B68FA689A6056
:104D30004CE07B6818683B6899683B685A683B6838
:104D4000DB6800F063FC7B681B687A681268926815
:104D500042F480429A6039E07B6818683B68596881
:104D60003B68DB681A4600F0D7FB7B681B68502164
:104D7000184600F030FC29E07B6818683B685968E9
:104D80003B68DB681A4600F0F6FB7B681B68602115
:104D9000184600F020FC19E07B6818683B685968E9
:104DA0003B68DB681A4600F0B7FB7B681B68402154
:104DB000184600F010FC09E07B681A683B681B6825
:104DC0001946104600F007FC00E000BF7B68012296
:104DD00083F83D207B68002283F83C20002318469E
:104DE0001037BD4680BD80B483B000AF786000BF8F
:104DF0000C37BD465DF8047B704780B483B000AFCC
:104E0000786000BF0C37BD465DF8047B704780B406
:104E100083B000AF786000BF0C37BD465DF8047BFF
:104E2000704780B483B000AF786000BF0C37BD46D8
:104E30005DF8047B7047000080B485B000AF7860F7
:104E400039607B681B68FB607B68404A934213D0E3
:104E50007B68B3F1804F0FD07B683D4A93420BD003
:104E60007B683C4A934207D07B683B4A934203D01D
:104E70007B683A4A934208D1FB6823F07003FB60D9
:104E80003B685B68FA681343FB607B682F4A934278
:104E90001FD07B68B3F1804F1BD07B682C4A9342B4
:104EA00017D07B682B4A934213D07B682A4A9342DF
:104EB0000FD07B68294A93420BD07B68284A9342E3
:104EC00007D07B68274A934203D07B68264A9342E7
:104ED00008D1FB6823F44073FB603B68DB68FA6829
:104EE0001343FB60FB6823F080023B685B6913435C
:104EF000FB607B68FA681A603B689A687B68DA62D4
:104F00003B681A687B689A627B68104A93420FD0AC
:104F10007B68124A93420BD07B68114A934207D0B8
:104F20007B68104A934203D07B680F4A934203D1B7
:104F30003B681A697B681A637B6801225A6100BF6B
:104F40001437BD465DF8047B704700BF002C01405C
:104F50000004004000080040000C00400034014004
:104F600000400140004401400048014080B487B047
:104F700000AF786039607B681B6A23F001027B68B0
:104F80001A627B681B6A7B617B685B683B617B683C
:104F90009B69FB60FB6823F4803323F07003FB60A4
:104FA000FB6823F00303FB603B681B68FA6813434C
:104FB000FB607B6923F002037B613B689B687A6935
:104FC00013437B617B682C4A93420FD07B682B4A4A
:104FD00093420BD07B682A4A934207D07B68294AC8
:104FE000934203D07B68284A93420CD17B6923F01B
:104FF00008037B613B68DB687A6913437B617B69EB
:1050000023F004037B617B681B4A93420FD07B68CB
:105010001A4A93420BD07B68194A934207D07B68A7
:10502000184A934203D07B68174A934211D13B69D7
:1050300023F480733B613B6923F400733B613B685D
:105040005B693A6913433B613B689B693A69134367
:105050003B617B683A695A607B68FA689A613B6891
:105060005A687B685A637B687A691A6200BF1C378A
:10507000BD465DF8047B7047002C014000340140C0
:1050800000400140004401400048014080B487B026
:1050900000AF786039607B681B6A23F010027B6880
:1050A0001A627B681B6A7B617B685B683B617B681B
:1050B0009B69FB60FB6823F0807323F4E043FB6093
:1050C000FB6823F44073FB603B681B681B02FA68B3
:1050D0001343FB607B6923F020037B613B689B6883
:1050E0001B017A6913437B617B68284A934203D092
:1050F0007B68274A93420DD17B6923F080037B6153
:105100003B68DB681B017A6913437B617B6923F091
:1051100040037B617B681D4A93420FD07B681C4A29
:1051200093420BD07B681B4A934207D07B681A4A94
:10513000934203D07B68194A934213D13B6923F40D
:1051400080633B613B6923F400633B613B685B69BF
:105150009B003A6913433B613B689B699B003A693A
:1051600013433B617B683A695A607B68FA689A61CD
:105170003B685A687B689A637B687A691A6200BFE9
:105180001C37BD465DF8047B704700BF002C014012
:10519000003401400040014000440140004801400B
:1051A00080B487B000AF786039607B681B6A23F4F5
:1051B00080727B681A627B681B6A7B617B685B68B4
:1051C0003B617B68DB69FB60FB6823F4803323F081
:1051D0007003FB60FB6823F00303FB603B681B6804
:1051E000FA681343FB607B6923F400737B613B68BF
:1051F0009B681B027A6913437B617B68274A934251
:1052000003D07B68264A93420DD17B6923F4006367
:105210007B613B68DB681B027A6913437B617B69B6
:1052200023F480637B617B681C4A93420FD07B68C8
:105230001B4A93420BD07B681A4A934207D07B6883
:10524000194A934203D07B68184A934213D13B69B1
:1052500023F480533B613B6923F400533B613B687B
:105260005B691B013A6913433B613B689B691B0106
:105270003A6913433B617B683A695A607B68FA6814
:10528000DA613B685A687B68DA637B687A691A621C
:1052900000BF1C37BD465DF8047B7047002C014001
:1052A00000340140004001400044014000480140FA
:1052B00080B487B000AF786039607B681B6A23F4E4
:1052C00080527B681A627B681B6A3B617B685B6803
:1052D0007B617B68DB69FB60FB6823F0807323F4F0
:1052E000E043FB60FB6823F44073FB603B681B6892
:1052F0001B02FA681343FB603B6923F400533B61D4
:105300003B689B681B033A6913433B617B68184AFF
:1053100093420FD07B68174A93420BD07B68164AA2
:10532000934207D07B68154A934203D07B68144AA6
:10533000934209D17B6923F480437B613B685B69BD
:105340009B017A6913437B617B687A695A607B6849
:10535000FA68DA613B685A687B681A647B683A6964
:105360001A6200BF1C37BD465DF8047B704700BF62
:10537000002C014000340140004001400044014045
:105380000048014080B487B000AF786039607B6826
:105390001B6A23F480327B681A627B681B6A3B615C
:1053A0007B685B687B617B685B6DFB60FB6823F4FB
:1053B000803323F07003FB603B681B68FA6813437B
:1053C000FB603B6923F400333B613B689B681B0433
:1053D0003A6913433B617B68174A93420FD07B685D
:1053E000164A93420BD07B68154A934207D07B68DC
:1053F000144A934203D07B68134A934209D17B69D4
:1054000023F480337B613B685B691B027A69134339
:105410007B617B687A695A607B68FA685A653B6889
:105420005A687B689A657B683A691A6200BF1C37C4
:10543000BD465DF8047B7047002C014000340140FC
:1054400000400140004401400048014080B487B062
:1054500000AF786039607B681B6A23F480127B6838
:105460001A627B681B6A3B617B685B687B617B6857
:105470005B6DFB60FB6823F0807323F4E043FB600B
:105480003B681B681B02FA681343FB603B6923F40B
:1054900000133B613B689B681B053A6913433B6102
:1054A0007B68184A93420FD07B68174A93420BD00F
:1054B0007B68164A934207D07B68154A934203D013
:1054C0007B68144A934209D17B6923F480237B6172
:1054D0003B685B699B027A6913437B617B687A69ED
:1054E0005A607B68FA685A653B685A687B68DA6577
:1054F0007B683A691A6200BF1C37BD465DF8047BC1
:10550000704700BF002C01400034014000400140C2
:10551000004401400048014080B487B000AFF8600B
:10552000B9607A60FB681B6A7B61FB681B6A23F0C9
:105530000102FB681A62FB689B693B613B6923F0CF
:10554000F0033B617B681B013A6913433B617B6954
:1055500023F00A037B617A69BB6813437B61FB68B4
:105560003A699A61FB687A691A6200BF1C37BD46C6
:105570005DF8047B704780B487B000AFF860B96015
:105580007A60FB681B6A23F01002FB681A62FB68F2
:105590009B697B61FB681B6A3B617B6923F47043F9
:1055A0007B617B681B037A6913437B613B6923F052
:1055B000A0033B61BB681B013A6913433B61FB6875
:1055C0007A699A61FB683A691A6200BF1C37BD4666
:1055D0005DF8047B704780B485B000AF78603960B7
:1055E0007B689B68FB60FB6823F07003FB603A6894
:1055F000FB68134343F00703FB607B68FA689A601B
:1056000000BF1437BD465DF8047B704780B487B097
:1056100000AFF860B9607A603B60FB689B687B61B3
:105620007B6923F47F437B613B681A027B681A43E2
:10563000BB6813437A6913437B61FB687A699A609C
:1056400000BF1C37BD465DF8047B704780B487B04F
:1056500000AFF860B9607A60BB6803F01F030122F5
:1056600002FA03F37B61FB681A6A7B69DB431A4029
:10567000FB681A62FB681A6ABB6803F01F0379684B
:1056800001FA03F31A43FB681A6200BF1C37BD46D8
:105690005DF8047B7047000080B485B000AF78608F
:1056A00039607B6893F83C30012B01D1022345E03F
:1056B0007B68012283F83C207B68022283F83D202E
:1056C0007B681B685B68FB607B681B689B68BB60D2
:1056D0007B681B681C4A934204D07B681B681B4A8A
:1056E000934208D1FB6823F47003FB603B685B685E
:1056F000FA681343FB60FB6823F07003FB603B68B0
:105700001B68FA681343FB60BB6823F08003BB602F
:105710003B689B68BA681343BB607B681B68FA6888
:105720005A607B681B68BA689A607B68012283F8BC
:105730003D207B68002283F83C2000231846143764
:10574000BD465DF8047B7047002C014000340140E9
:1057500080B483B000AF786000BF0C37BD465DF801
:10576000047B704780B483B000AF786000BF0C3713
:10577000BD465DF8047B704780B483B000AF7860AD
:1057800000BF0C37BD465DF8047B704780B582B022
:1057900000AF78607B68002B01D1012340E07B687B
:1057A0005B6F002B06D17B68002283F8702078683D
:1057B00001F0DEFF7B6824225A677B681B687A68E9
:1057C0001268126822F001021A60786800F0A6FAE6
:1057D0000346012B01D1012322E07B685B6A002B89
:1057E00002D0786800F0D4FD7B681B687A68126884
:1057F000526822F490425A607B681B687A6812688B
:10580000926822F02A029A607B681B687A681268A4
:10581000126842F001021A60786800F05BFE0346ED
:1058200018460837BD4680BD80B58AB002AFF86023
:10583000B9603B601346FB80FB685B6F202B40F038
:105840008180BB68002B02D0FB88002B01D1012393
:1058500079E0FB6893F87030012B01D1022372E0EC
:10586000FB68012283F87020FB680022DA67FB687E
:1058700021225A67FBF7D8FB7861FB68FA88A3F806
:105880005020FB68FA88A3F85220FB689B68B3F5A8
:10589000805F08D1FB681B69002B04D10023FB61EA
:1058A000BB68BB6103E0BB68FB610023BB612DE00B
:1058B0003B6800937B6900228021F86800F04FFE6E
:1058C0000346002B01D003233DE0FB69002B0BD1E5
:1058D000FB681B68BA691288C2F3080292B21A8583
:1058E000BB690233BB6108E0FB681B68FA69127888
:1058F00092B21A85FB690133FB61FB68B3F8523041
:105900009BB2013B9AB2FB68A3F85220FB68B3F844
:1059100052309BB2002BCBD13B6800937B690022B5
:105920004021F86800F01BFE0346002B01D0032342
:1059300009E0FB6820225A67FB68002283F8702088
:10594000002300E0022318462037BD4680BD00003A
:1059500080B485B000AFF860B9601346FB80FB6887
:105960009B6F202B40F08A80BB68002B02D0FB8805
:10597000002B01D1012382E0FB6893F87030012BEA
:1059800001D102237BE0FB68012283F87020FB68D1
:10599000BA685A65FB68FA88A3F85820FB68FA8849
:1059A000A3F85A20FB6800221A66FB689B68B3F5CF
:1059B000805F0ED1FB681B69002B05D1FB6840F2AC
:1059C000FF12A3F85C202DE0FB68FF22A3F85C2007
:1059D00028E0FB689B68002B0DD1FB681B69002B3E
:1059E00004D1FB68FF22A3F85C201BE0FB687F2248
:1059F000A3F85C2016E0FB689B68B3F1805F0DD1D3
:105A0000FB681B69002B04D1FB687F22A3F85C2094
:105A100008E0FB683F22A3F85C2003E0FB6800225B
:105A2000A3F85C20FB680022DA67FB6822229A67F1
:105A3000FB681B68FA681268926842F001029A607B
:105A4000FB689B68B3F5805F07D1FB681B69002B7F
:105A500003D1FB680D4A1A6602E0FB680C4A1A661D
:105A6000FB68002283F87020FB681B68FA681268E4
:105A7000126842F490721A60002300E00223184674
:105A80001437BD465DF8047B704700BF37670008D8
:105A90008D66000880B588B000AF78607B681B68B1
:105AA000DB69FB617B681B681B68BB617B681B68EB
:105AB0009B687B61FB6903F00F033B613B69002B33
:105AC00013D1FB6903F02003002B0ED0BB6903F058
:105AD0002003002B09D07B681B6E002B00F0FF8099
